{
  "contractName": "IpfsUpload",
  "abi": [
    {
      "inputs": [],
      "payable": false,
      "stateMutability": "nonpayable",
      "type": "constructor"
    },
    {
      "constant": true,
      "inputs": [
        {
          "internalType": "uint256",
          "name": "",
          "type": "uint256"
        }
      ],
      "name": "_ipfsImages",
      "outputs": [
        {
          "internalType": "uint256",
          "name": "_id",
          "type": "uint256"
        },
        {
          "internalType": "string",
          "name": "_path",
          "type": "string"
        }
      ],
      "payable": false,
      "stateMutability": "view",
      "type": "function"
    },
    {
      "constant": true,
      "inputs": [],
      "name": "_manager",
      "outputs": [
        {
          "internalType": "address",
          "name": "",
          "type": "address"
        }
      ],
      "payable": false,
      "stateMutability": "view",
      "type": "function"
    },
    {
      "constant": false,
      "inputs": [
        {
          "internalType": "string",
          "name": "_ipfsHashWithBaseUrl",
          "type": "string"
        }
      ],
      "name": "addFile",
      "outputs": [],
      "payable": false,
      "stateMutability": "nonpayable",
      "type": "function"
    },
    {
      "constant": false,
      "inputs": [
        {
          "internalType": "uint256",
          "name": "_index",
          "type": "uint256"
        }
      ],
      "name": "deleteFile",
      "outputs": [],
      "payable": false,
      "stateMutability": "nonpayable",
      "type": "function"
    },
    {
      "constant": false,
      "inputs": [],
      "name": "getFiles",
      "outputs": [
        {
          "components": [
            {
              "internalType": "uint256",
              "name": "_id",
              "type": "uint256"
            },
            {
              "internalType": "string",
              "name": "_path",
              "type": "string"
            }
          ],
          "internalType": "struct IpfsUpload.ImageStruct[]",
          "name": "",
          "type": "tuple[]"
        }
      ],
      "payable": false,
      "stateMutability": "nonpayable",
      "type": "function"
    }
  ],
  "bytecode": "0x608060405234801561001057600080fd5b5033600160006101000a81548173ffffffffffffffffffffffffffffffffffffffff021916908373ffffffffffffffffffffffffffffffffffffffff1602179055506109f1806100616000396000f3fe608060405234801561001057600080fd5b50600436106100575760003560e01c80632da96d731461005c578063c5b420061461007a578063ddca59c314610096578063eb9b9b64146100c7578063f0329f6b146100e3575b600080fd5b610064610101565b60405161007191906107f7565b60405180910390f35b610094600480360361008f919081019061064e565b61020c565b005b6100b060048036036100ab919081019061064e565b6102be565b6040516100be929190610819565b60405180910390f35b6100e160048036036100dc919081019061060d565b610387565b005b6100eb61040a565b6040516100f891906107dc565b60405180910390f35b60606000805480602002602001604051908101604052809291908181526020016000905b82821015610203578382906000526020600020906002020160405180604001604052908160008201548152602001600182018054600181600116156101000203166002900480601f0160208091040260200160405190810160405280929190818152602001828054600181600116156101000203166002900480156101eb5780601f106101c0576101008083540402835291602001916101eb565b820191906000526020600020905b8154815290600101906020018083116101ce57829003601f168201915b50505050508152505081526020019060010190610125565b50505050905090565b60006001600080549050038154811061022157fe5b90600052602060002090600202016000828154811061023c57fe5b9060005260206000209060020201600082015481600001556001820181600101908054600181600116156101000203166002900461027b929190610430565b50905050600080548061028a57fe5b60019003818190600052602060002090600202016000808201600090556001820160006102b791906104b7565b5050905550565b600081815481106102cb57fe5b9060005260206000209060020201600091509050806000015490806001018054600181600116156101000203166002900480601f01602080910402602001604051908101604052809291908181526020018280546001816001161561010002031660029004801561037d5780601f106103525761010080835404028352916020019161037d565b820191906000526020600020905b81548152906001019060200180831161036057829003601f168201915b5050505050905082565b60026000815480929190600101919050555060006040518060400160405280600254815260200183815250908060018154018082558091505090600182039060005260206000209060020201600090919290919091506000820151816000015560208201518160010190805190602001906104039291906104ff565b5050505050565b600160009054906101000a900473ffffffffffffffffffffffffffffffffffffffff1681565b828054600181600116156101000203166002900490600052602060002090601f016020900481019282601f1061046957805485556104a6565b828001600101855582156104a657600052602060002091601f016020900482015b828111156104a557825482559160010191906001019061048a565b5b5090506104b3919061057f565b5090565b50805460018160011615610100020316600290046000825580601f106104dd57506104fc565b601f0160209004906000526020600020908101906104fb919061057f565b5b50565b828054600181600116156101000203166002900490600052602060002090601f016020900481019282601f1061054057805160ff191683800117855561056e565b8280016001018555821561056e579182015b8281111561056d578251825591602001919060010190610552565b5b50905061057b919061057f565b5090565b6105a191905b8082111561059d576000816000905550600101610585565b5090565b90565b600082601f8301126105b557600080fd5b81356105c86105c382610876565b610849565b915080825260208301602083018583830111156105e457600080fd5b6105ef838284610944565b50505092915050565b60008135905061060781610997565b92915050565b60006020828403121561061f57600080fd5b600082013567ffffffffffffffff81111561063957600080fd5b610645848285016105a4565b91505092915050565b60006020828403121561066057600080fd5b600061066e848285016105f8565b91505092915050565b60006106838383610781565b905092915050565b61069481610908565b82525050565b60006106a5826108b2565b6106af81856108d5565b9350836020820285016106c1856108a2565b8060005b858110156106fd57848403895281516106de8582610677565b94506106e9836108c8565b925060208a019950506001810190506106c5565b50829750879550505050505092915050565b600061071a826108bd565b61072481856108e6565b9350610734818560208601610953565b61073d81610986565b840191505092915050565b6000610753826108bd565b61075d81856108f7565b935061076d818560208601610953565b61077681610986565b840191505092915050565b600060408301600083015161079960008601826107be565b50602083015184820360208601526107b1828261070f565b9150508091505092915050565b6107c78161093a565b82525050565b6107d68161093a565b82525050565b60006020820190506107f1600083018461068b565b92915050565b60006020820190508181036000830152610811818461069a565b905092915050565b600060408201905061082e60008301856107cd565b81810360208301526108408184610748565b90509392505050565b6000604051905081810181811067ffffffffffffffff8211171561086c57600080fd5b8060405250919050565b600067ffffffffffffffff82111561088d57600080fd5b601f19601f8301169050602081019050919050565b6000819050602082019050919050565b600081519050919050565b600081519050919050565b6000602082019050919050565b600082825260208201905092915050565b600082825260208201905092915050565b600082825260208201905092915050565b60006109138261091a565b9050919050565b600073ffffffffffffffffffffffffffffffffffffffff82169050919050565b6000819050919050565b82818337600083830152505050565b60005b83811015610971578082015181840152602081019050610956565b83811115610980576000848401525b50505050565b6000601f19601f8301169050919050565b6109a08161093a565b81146109ab57600080fd5b5056fea365627a7a723158204741b26874c82d3056eb703c99a4f071f19dee834886e817f01a0008f24670926c6578706572696d656e74616cf564736f6c63430005100040",
  "source": "// SPDX-License-Identifier: MIT\npragma solidity >=0.4.21 <0.7.0;\npragma experimental ABIEncoderV2;\n\ncontract IpfsUpload {\n\n    struct ImageStruct {\n        uint _id;\n        string _path;\n    }\n\n    ImageStruct[] public _ipfsImages;\n    address public _manager;\n    uint _idInc;\n\n    constructor()public{\n        _manager = msg.sender;\n    }\n\n    function addFile(string memory _ipfsHashWithBaseUrl) public  {\n        _idInc++;\n        _ipfsImages.push(\n            ImageStruct({\n                _id:_idInc,\n                _path:_ipfsHashWithBaseUrl\n            })\n        );\n    }\n\n    function deleteFile(uint _index) public{\n        _ipfsImages[_index] = _ipfsImages[_ipfsImages.length-1];\n        _ipfsImages.pop();\n    }\n\n    function getFiles()public  returns(ImageStruct[] memory) {\n        return _ipfsImages;\n    }\n\n}",
  "sourcePath": "/Users/fc19193/useCase/ipfs-image-upload/contracts/IpfsUpload.sol",
  "compiler": {
    "name": "solc",
    "version": "0.5.16+commit.9c3226ce.Emscripten.clang"
  },
  "schemaVersion": "3.4.7",
  "updatedAt": "2022-06-14T11:27:35.962Z",
  "networkType": "ethereum",
  "devdoc": {
    "methods": {}
  },
  "userdoc": {
    "methods": {}
  }
}